{
  "transactions": [
    {
      "hash": "0xce95abed88e6dd93e9f012d84bdca72fa68a46fd9095830f95a6b0a13f3c11bd",
      "transactionType": "CREATE",
      "contractName": null,
      "contractAddress": "0x852518f32acd547fc8c4865aae3c9bc740d1d6d7",
      "function": null,
      "arguments": null,
      "transaction": {
        "from": "0xd60981e639e3378e1db339bc73819b97c752740b",
        "gas": "0x1b3ce3",
        "value": "0x0",
        "input": "0x60806040526040516104f23803806104f2833981016040819052610022916102e2565b818161003082826000610039565b505050506103ff565b61004283610065565b60008251118061004f5750805b156100605761005e83836100a5565b505b505050565b61006e816100d1565b6040516001600160a01b038216907fbc7cd75a20ee27fd9adebab32041f755214dbc6bffa90cc0225b39da2e5c2d3b90600090a250565b60606100ca83836040518060600160405280602781526020016104cb60279139610184565b9392505050565b6001600160a01b0381163b6101435760405162461bcd60e51b815260206004820152602d60248201527f455243313936373a206e657720696d706c656d656e746174696f6e206973206e60448201526c1bdd08184818dbdb9d1c9858dd609a1b60648201526084015b60405180910390fd5b7f360894a13ba1a3210667c828492db98dca3e2076cc3735a920a3ca505d382bbc80546001600160a01b0319166001600160a01b0392909216919091179055565b6060600080856001600160a01b0316856040516101a191906103b0565b600060405180830381855af49150503d80600081146101dc576040519150601f19603f3d011682016040523d82523d6000602084013e6101e1565b606091505b5090925090506101f3868383876101fd565b9695505050505050565b6060831561026c578251600003610265576001600160a01b0385163b6102655760405162461bcd60e51b815260206004820152601d60248201527f416464726573733a2063616c6c20746f206e6f6e2d636f6e7472616374000000604482015260640161013a565b5081610276565b610276838361027e565b949350505050565b81511561028e5781518083602001fd5b8060405162461bcd60e51b815260040161013a91906103cc565b634e487b7160e01b600052604160045260246000fd5b60005b838110156102d95781810151838201526020016102c1565b50506000910152565b600080604083850312156102f557600080fd5b82516001600160a01b038116811461030c57600080fd5b60208401519092506001600160401b038082111561032957600080fd5b818501915085601f83011261033d57600080fd5b81518181111561034f5761034f6102a8565b604051601f8201601f19908116603f01168101908382118183101715610377576103776102a8565b8160405282815288602084870101111561039057600080fd5b6103a18360208301602088016102be565b80955050505050509250929050565b600082516103c28184602087016102be565b9190910192915050565b60208152600082518060208401526103eb8160408501602087016102be565b601f01601f19169190910160400192915050565b60be8061040d6000396000f3fe608060405236601057600e6013565b005b600e5b601f601b6021565b6065565b565b600060607f360894a13ba1a3210667c828492db98dca3e2076cc3735a920a3ca505d382bbc5473ffffffffffffffffffffffffffffffffffffffff1690565b905090565b3660008037600080366000845af43d6000803e8080156083573d6000f35b3d6000fdfea26469706673582212204804fd700889312323f991b03051fa7c195609079bf593464d95cb0dc09bd4a664736f6c63430008130033416464726573733a206c6f772d6c6576656c2064656c65676174652063616c6c206661696c6564000000000000000000000000da0826b6690a7a1c757aeb75aac3cc73a8abd01e000000000000000000000000000000000000000000000000000000000000004000000000000000000000000000000000000000000000000000000000000000c44cd88b7600000000000000000000000000000000000000000000000000000000000000400000000000000000000000000000000000000000000000000000000000000080000000000000000000000000000000000000000000000000000000000000000f3155534420537461626c65636f696e00000000000000000000000000000000000000000000000000000000000000000000000000000000000000000000000004315553440000000000000000000000000000000000000000000000000000000000000000000000000000000000000000000000000000000000000000",
        "nonce": "0x1",
        "chainId": "0xa4b1"
      },
      "additionalContracts": [],
      "isFixedGasLimit": false
    },
    {
      "hash": "0x7f1f18548f6c610f7f0d27001e56955fb1d42b5db3c91d9e7d11f2cc8a625044",
      "transactionType": "CALL",
      "contractName": null,
      "contractAddress": "0x852518f32acd547fc8c4865aae3c9bc740d1d6d7",
      "function": "pushMintPool(uint256,uint256,uint256)",
      "arguments": [
        "0",
        "200000000000000000000000",
        "500000000000000000000000"
      ],
      "transaction": {
        "from": "0xd60981e639e3378e1db339bc73819b97c752740b",
        "to": "0x852518f32acd547fc8c4865aae3c9bc740d1d6d7",
        "gas": "0x46744",
        "value": "0x0",
        "input": "0x9276809a0000000000000000000000000000000000000000000000000000000000000000000000000000000000000000000000000000000000002a5a058fc295ed0000000000000000000000000000000000000000000000000069e10de76676d0800000",
        "nonce": "0x2",
        "chainId": "0xa4b1"
      },
      "additionalContracts": [],
      "isFixedGasLimit": false
    },
    {
      "hash": "0x3977c001f81d8ee76ecad16d01e860e61673102417419c0079b428da0608ad1f",
      "transactionType": "CALL",
      "contractName": null,
      "contractAddress": "0x852518f32acd547fc8c4865aae3c9bc740d1d6d7",
      "function": "pushMintPool(uint256,uint256,uint256)",
      "arguments": [
        "1",
        "500000000000000000000000",
        "2000000000000000000000000"
      ],
      "transaction": {
        "from": "0xd60981e639e3378e1db339bc73819b97c752740b",
        "to": "0x852518f32acd547fc8c4865aae3c9bc740d1d6d7",
        "gas": "0x46763",
        "value": "0x0",
        "input": "0x9276809a00000000000000000000000000000000000000000000000000000000000000010000000000000000000000000000000000000000000069e10de76676d080000000000000000000000000000000000000000000000001a784379d99db42000000",
        "nonce": "0x3",
        "chainId": "0xa4b1"
      },
      "additionalContracts": [],
      "isFixedGasLimit": false
    },
    {
      "hash": "0xb9fd7360366f79c4727b244eb82fc6ad387ad8b5bcd9a109c66a17d5c976aec6",
      "transactionType": "CALL",
      "contractName": null,
      "contractAddress": "0x852518f32acd547fc8c4865aae3c9bc740d1d6d7",
      "function": "pushMintPool(uint256,uint256,uint256)",
      "arguments": [
        "2",
        "50000000000000000000000000",
        "50000000000000000000000000"
      ],
      "transaction": {
        "from": "0xd60981e639e3378e1db339bc73819b97c752740b",
        "to": "0x852518f32acd547fc8c4865aae3c9bc740d1d6d7",
        "gas": "0x46763",
        "value": "0x0",
        "input": "0x9276809a0000000000000000000000000000000000000000000000000000000000000002000000000000000000000000000000000000000000295be96e64066972000000000000000000000000000000000000000000000000295be96e64066972000000",
        "nonce": "0x4",
        "chainId": "0xa4b1"
      },
      "additionalContracts": [],
      "isFixedGasLimit": false
    },
    {
      "hash": "0x0da47ff731db630e3d72500fc09110b120bff9f55f3ee7a140dee3ecc252dec2",
      "transactionType": "CALL",
      "contractName": null,
      "contractAddress": "0x852518f32acd547fc8c4865aae3c9bc740d1d6d7",
      "function": "grantRole(bytes32,address)",
      "arguments": [
        "0x9f2df0fed2c77648de5860a4cc508cd0818c85b8b8a1ab4ceeef8d981c8956a6",
        "0xc9e8dd03F8288aBaf1EE4AB18646A7e42dd64Ce7"
      ],
      "transaction": {
        "from": "0xd60981e639e3378e1db339bc73819b97c752740b",
        "to": "0x852518f32acd547fc8c4865aae3c9bc740d1d6d7",
        "gas": "0x3e3cb",
        "value": "0x0",
        "input": "0x2f2ff15d9f2df0fed2c77648de5860a4cc508cd0818c85b8b8a1ab4ceeef8d981c8956a6000000000000000000000000c9e8dd03f8288abaf1ee4ab18646a7e42dd64ce7",
        "nonce": "0x5",
        "chainId": "0xa4b1"
      },
      "additionalContracts": [],
      "isFixedGasLimit": false
    },
    {
      "hash": "0x8f9018a3df8ebbf1e3d55d696d8edc36ec34a57920e4991e405174e8b080553a",
      "transactionType": "CALL",
      "contractName": null,
      "contractAddress": "0x852518f32acd547fc8c4865aae3c9bc740d1d6d7",
      "function": "grantRole(bytes32,address)",
      "arguments": [
        "0xd0aeb7b93be3b51a84ef63e0abb79b32e3ca9c5200c315110bf8808662f5151b",
        "0x0D55E17ca63ffF2715859528EddC54D0A7E91248"
      ],
      "transaction": {
        "from": "0xd60981e639e3378e1db339bc73819b97c752740b",
        "to": "0x852518f32acd547fc8c4865aae3c9bc740d1d6d7",
        "gas": "0x3e3bb",
        "value": "0x0",
        "input": "0x2f2ff15dd0aeb7b93be3b51a84ef63e0abb79b32e3ca9c5200c315110bf8808662f5151b0000000000000000000000000d55e17ca63fff2715859528eddc54d0a7e91248",
        "nonce": "0x6",
        "chainId": "0xa4b1"
      },
      "additionalContracts": [],
      "isFixedGasLimit": false
    },
    {
      "hash": "0x7fbe066e0057b5f3f237ef008126779b6c65073b6af0d17c964a3b3db5068370",
      "transactionType": "CALL",
      "contractName": null,
      "contractAddress": "0x852518f32acd547fc8c4865aae3c9bc740d1d6d7",
      "function": "grantRole(bytes32,address)",
      "arguments": [
        "0xd0aeb7b93be3b51a84ef63e0abb79b32e3ca9c5200c315110bf8808662f5151b",
        "0x80bA50157eEa3d33E179E7C50C1f3D59484B1790"
      ],
      "transaction": {
        "from": "0xd60981e639e3378e1db339bc73819b97c752740b",
        "to": "0x852518f32acd547fc8c4865aae3c9bc740d1d6d7",
        "gas": "0x3e3bb",
        "value": "0x0",
        "input": "0x2f2ff15dd0aeb7b93be3b51a84ef63e0abb79b32e3ca9c5200c315110bf8808662f5151b00000000000000000000000080ba50157eea3d33e179e7c50c1f3d59484b1790",
        "nonce": "0x7",
        "chainId": "0xa4b1"
      },
      "additionalContracts": [],
      "isFixedGasLimit": false
    },
    {
      "hash": "0x626fc9f88d563f3c97cb2b7d4095db330e9a6eb8cbe04f8ff6f9ce1175699ca4",
      "transactionType": "CALL",
      "contractName": null,
      "contractAddress": "0x852518f32acd547fc8c4865aae3c9bc740d1d6d7",
      "function": "grantRole(bytes32,address)",
      "arguments": [
        "0xd0aeb7b93be3b51a84ef63e0abb79b32e3ca9c5200c315110bf8808662f5151b",
        "0x083B59F244f8BAcbc79282Cdd623686324C962AC"
      ],
      "transaction": {
        "from": "0xd60981e639e3378e1db339bc73819b97c752740b",
        "to": "0x852518f32acd547fc8c4865aae3c9bc740d1d6d7",
        "gas": "0x3e3bb",
        "value": "0x0",
        "input": "0x2f2ff15dd0aeb7b93be3b51a84ef63e0abb79b32e3ca9c5200c315110bf8808662f5151b000000000000000000000000083b59f244f8bacbc79282cdd623686324c962ac",
        "nonce": "0x8",
        "chainId": "0xa4b1"
      },
      "additionalContracts": [],
      "isFixedGasLimit": false
    },
    {
      "hash": "0x2a1f0810577387aff80908d635bb674afe1488a7dc1ab1a56cf5db8f81d1243f",
      "transactionType": "CALL",
      "contractName": null,
      "contractAddress": "0x852518f32acd547fc8c4865aae3c9bc740d1d6d7",
      "function": "grantRole(bytes32,address)",
      "arguments": [
        "0xd0aeb7b93be3b51a84ef63e0abb79b32e3ca9c5200c315110bf8808662f5151b",
        "0x960b1d99A841399fB226715d9eF8cCAfb9996bC8"
      ],
      "transaction": {
        "from": "0xd60981e639e3378e1db339bc73819b97c752740b",
        "to": "0x852518f32acd547fc8c4865aae3c9bc740d1d6d7",
        "gas": "0x3e3bb",
        "value": "0x0",
        "input": "0x2f2ff15dd0aeb7b93be3b51a84ef63e0abb79b32e3ca9c5200c315110bf8808662f5151b000000000000000000000000960b1d99a841399fb226715d9ef8ccafb9996bc8",
        "nonce": "0x9",
        "chainId": "0xa4b1"
      },
      "additionalContracts": [],
      "isFixedGasLimit": false
    },
    {
      "hash": "0xb4447ba6c512f593740b4569a1bedb531655f9d6e9226f023b48071f3157f412",
      "transactionType": "CALL",
      "contractName": null,
      "contractAddress": "0x852518f32acd547fc8c4865aae3c9bc740d1d6d7",
      "function": "grantRole(bytes32,address)",
      "arguments": [
        "0xd0aeb7b93be3b51a84ef63e0abb79b32e3ca9c5200c315110bf8808662f5151b",
        "0xFbF329794a64Bf940f7B3bdaFf4F2157ba23B3CC"
      ],
      "transaction": {
        "from": "0xd60981e639e3378e1db339bc73819b97c752740b",
        "to": "0x852518f32acd547fc8c4865aae3c9bc740d1d6d7",
        "gas": "0x3e3bb",
        "value": "0x0",
        "input": "0x2f2ff15dd0aeb7b93be3b51a84ef63e0abb79b32e3ca9c5200c315110bf8808662f5151b000000000000000000000000fbf329794a64bf940f7b3bdaff4f2157ba23b3cc",
        "nonce": "0xa",
        "chainId": "0xa4b1"
      },
      "additionalContracts": [],
      "isFixedGasLimit": false
    },
    {
      "hash": "0xd34f07e263ba9df2095d9ce225f901d41d2e2c5c19b9f8f39000584b14f21f5c",
      "transactionType": "CALL",
      "contractName": null,
      "contractAddress": "0x852518f32acd547fc8c4865aae3c9bc740d1d6d7",
      "function": "grantRole(bytes32,address)",
      "arguments": [
        "0xd0aeb7b93be3b51a84ef63e0abb79b32e3ca9c5200c315110bf8808662f5151b",
        "0x937c8C2d78fd98E6C5488519B05a797ae1b9Eb40"
      ],
      "transaction": {
        "from": "0xd60981e639e3378e1db339bc73819b97c752740b",
        "to": "0x852518f32acd547fc8c4865aae3c9bc740d1d6d7",
        "gas": "0x3e3bb",
        "value": "0x0",
        "input": "0x2f2ff15dd0aeb7b93be3b51a84ef63e0abb79b32e3ca9c5200c315110bf8808662f5151b000000000000000000000000937c8c2d78fd98e6c5488519b05a797ae1b9eb40",
        "nonce": "0xb",
        "chainId": "0xa4b1"
      },
      "additionalContracts": [],
      "isFixedGasLimit": false
    },
    {
      "hash": "0xb8da90f83d6521d8438606abbba4efe244e0ed48e5f551b57be0649233bc9b00",
      "transactionType": "CALL",
      "contractName": null,
      "contractAddress": "0x852518f32acd547fc8c4865aae3c9bc740d1d6d7",
      "function": "grantRole(bytes32,address)",
      "arguments": [
        "0xd0aeb7b93be3b51a84ef63e0abb79b32e3ca9c5200c315110bf8808662f5151b",
        "0x330Aaf998c9D2Fe97D1ab86Da724daF2F4d032E7"
      ],
      "transaction": {
        "from": "0xd60981e639e3378e1db339bc73819b97c752740b",
        "to": "0x852518f32acd547fc8c4865aae3c9bc740d1d6d7",
        "gas": "0x3e3bb",
        "value": "0x0",
        "input": "0x2f2ff15dd0aeb7b93be3b51a84ef63e0abb79b32e3ca9c5200c315110bf8808662f5151b000000000000000000000000330aaf998c9d2fe97d1ab86da724daf2f4d032e7",
        "nonce": "0xc",
        "chainId": "0xa4b1"
      },
      "additionalContracts": [],
      "isFixedGasLimit": false
    },
    {
      "hash": "0x21f2aeb3d980e9a6e0141a98e3df65ec87527d9333c6e95f204da2946b5b657c",
      "transactionType": "CALL",
      "contractName": null,
      "contractAddress": "0x852518f32acd547fc8c4865aae3c9bc740d1d6d7",
      "function": "grantRole(bytes32,address)",
      "arguments": [
        "0x7cd6f1a239a00c62e8815cb6a9b8149b13733d4f681b2e2ebeceddf933a69bcf",
        "0xE77747B356CD9Dbe6E465974919d6B91ff5ACCd2"
      ],
      "transaction": {
        "from": "0xd60981e639e3378e1db339bc73819b97c752740b",
        "to": "0x852518f32acd547fc8c4865aae3c9bc740d1d6d7",
        "gas": "0x3e3cb",
        "value": "0x0",
        "input": "0x2f2ff15d7cd6f1a239a00c62e8815cb6a9b8149b13733d4f681b2e2ebeceddf933a69bcf000000000000000000000000e77747b356cd9dbe6e465974919d6b91ff5accd2",
        "nonce": "0xd",
        "chainId": "0xa4b1"
      },
      "additionalContracts": [],
      "isFixedGasLimit": false
    },
    {
      "hash": "0x3f3caa42a19073e9ea1d59adbfe98da411ee122bf6909f18869b2b73597f5374",
      "transactionType": "CALL",
      "contractName": null,
      "contractAddress": "0x852518f32acd547fc8c4865aae3c9bc740d1d6d7",
      "function": "grantRole(bytes32,address)",
      "arguments": [
        "0x65d7a28e3265b37a6474929f336521b332c1681b933f6cb9f3376673440d862a",
        "0x69ee6870571D71Af0eE26D8B0d4DdD6261fa8232"
      ],
      "transaction": {
        "from": "0xd60981e639e3378e1db339bc73819b97c752740b",
        "to": "0x852518f32acd547fc8c4865aae3c9bc740d1d6d7",
        "gas": "0x3e3cb",
        "value": "0x0",
        "input": "0x2f2ff15d65d7a28e3265b37a6474929f336521b332c1681b933f6cb9f3376673440d862a00000000000000000000000069ee6870571d71af0ee26d8b0d4ddd6261fa8232",
        "nonce": "0xe",
        "chainId": "0xa4b1"
      },
      "additionalContracts": [],
      "isFixedGasLimit": false
    },
    {
      "hash": "0xffd027994a5e0917b6256de397a5e3f8e483d7feb05cf0527f57b3c83d2fa04e",
      "transactionType": "CALL",
      "contractName": null,
      "contractAddress": "0x852518f32acd547fc8c4865aae3c9bc740d1d6d7",
      "function": "grantRole(bytes32,address)",
      "arguments": [
        "0x0000000000000000000000000000000000000000000000000000000000000000",
        "0x5BafE071663F6E175F0b7424251aB46437Ba6abd"
      ],
      "transaction": {
        "from": "0xd60981e639e3378e1db339bc73819b97c752740b",
        "to": "0x852518f32acd547fc8c4865aae3c9bc740d1d6d7",
        "gas": "0x3e1d4",
        "value": "0x0",
        "input": "0x2f2ff15d00000000000000000000000000000000000000000000000000000000000000000000000000000000000000005bafe071663f6e175f0b7424251ab46437ba6abd",
        "nonce": "0xf",
        "chainId": "0xa4b1"
      },
      "additionalContracts": [],
      "isFixedGasLimit": false
    }
  ],
  "receipts": [
    {
      "status": "0x1",
      "cumulativeGasUsed": "0x210dc1",
      "logs": [
        {
          "address": "0x852518f32acd547fc8c4865aae3c9bc740d1d6d7",
          "topics": [
            "0xbc7cd75a20ee27fd9adebab32041f755214dbc6bffa90cc0225b39da2e5c2d3b",
            "0x000000000000000000000000da0826b6690a7a1c757aeb75aac3cc73a8abd01e"
          ],
          "data": "0x",
          "blockHash": "0xbe2b09ea844467c80ce99d411069a78d09f65bea3552bc24bffabb285a61eecf",
          "blockNumber": "0x110c5475",
          "transactionHash": "0xce95abed88e6dd93e9f012d84bdca72fa68a46fd9095830f95a6b0a13f3c11bd",
          "transactionIndex": "0x3",
          "logIndex": "0x7",
          "removed": false
        },
        {
          "address": "0x852518f32acd547fc8c4865aae3c9bc740d1d6d7",
          "topics": [
            "0x2f8788117e7eff1d82e926ec794901d17c78024a50270940304540a733656f0d",
            "0x0000000000000000000000000000000000000000000000000000000000000000",
            "0x000000000000000000000000d60981e639e3378e1db339bc73819b97c752740b",
            "0x000000000000000000000000d60981e639e3378e1db339bc73819b97c752740b"
          ],
          "data": "0x",
          "blockHash": "0xbe2b09ea844467c80ce99d411069a78d09f65bea3552bc24bffabb285a61eecf",
          "blockNumber": "0x110c5475",
          "transactionHash": "0xce95abed88e6dd93e9f012d84bdca72fa68a46fd9095830f95a6b0a13f3c11bd",
          "transactionIndex": "0x3",
          "logIndex": "0x8",
          "removed": false
        },
        {
          "address": "0x852518f32acd547fc8c4865aae3c9bc740d1d6d7",
          "topics": [
            "0xbd79b86ffe0ab8e8776151514217cd7cacd52c909f66475c3af44e129f0b00ff",
            "0x00fc2d686fa04c73d9010c440266d7edf4fc9634ba060d3fcce2280634f9998e",
            "0x0000000000000000000000000000000000000000000000000000000000000000",
            "0x7cd6f1a239a00c62e8815cb6a9b8149b13733d4f681b2e2ebeceddf933a69bcf"
          ],
          "data": "0x",
          "blockHash": "0xbe2b09ea844467c80ce99d411069a78d09f65bea3552bc24bffabb285a61eecf",
          "blockNumber": "0x110c5475",
          "transactionHash": "0xce95abed88e6dd93e9f012d84bdca72fa68a46fd9095830f95a6b0a13f3c11bd",
          "transactionIndex": "0x3",
          "logIndex": "0x9",
          "removed": false
        },
        {
          "address": "0x852518f32acd547fc8c4865aae3c9bc740d1d6d7",
          "topics": [
            "0x7f26b83ff96e1f2b6a682f133852f6798a09c465da95921460cefb3847402498"
          ],
          "data": "0x0000000000000000000000000000000000000000000000000000000000000001",
          "blockHash": "0xbe2b09ea844467c80ce99d411069a78d09f65bea3552bc24bffabb285a61eecf",
          "blockNumber": "0x110c5475",
          "transactionHash": "0xce95abed88e6dd93e9f012d84bdca72fa68a46fd9095830f95a6b0a13f3c11bd",
          "transactionIndex": "0x3",
          "logIndex": "0xa",
          "removed": false
        }
      ],
      "logsBloom": "0x00000004000000000800000000000000480000000000000000000000000000000000000000001000000000000000000000000000080000000400000400000000000000000000400000000000000002000000000000000010000000080000000000000000020000400000000000000800000000000000000000000000000000002000000000000000000000400000000000000000000080000000000008000000000000000000000000000000000400000000000000000000001002000000010000000020000200000000000000040000040000000000000100000000000020000000080000000000000000000000000000000000000000000000000000000000",
      "type": "0x2",
      "transactionHash": "0xce95abed88e6dd93e9f012d84bdca72fa68a46fd9095830f95a6b0a13f3c11bd",
      "transactionIndex": "0x3",
      "blockHash": "0xbe2b09ea844467c80ce99d411069a78d09f65bea3552bc24bffabb285a61eecf",
      "blockNumber": "0x110c5475",
      "gasUsed": "0x12da53",
      "effectiveGasPrice": "0x989680",
      "from": "0xd60981e639e3378e1db339bc73819b97c752740b",
      "to": null,
      "contractAddress": "0x852518f32acd547fc8c4865aae3c9bc740d1d6d7",
      "gasUsedForL1": "0xd7917",
      "l1BlockNumber": "0x146faa3"
    },
    {
      "status": "0x1",
      "cumulativeGasUsed": "0x145b56",
      "logs": [
        {
          "address": "0x852518f32acd547fc8c4865aae3c9bc740d1d6d7",
          "topics": [
            "0x600574a7b9be83162c89cebf12e8deb5c80a4121ec49f68ccd53d9de62add9b8"
          ],
          "data": "0x0000000000000000000000000000000000000000000000000000000000000000000000000000000000000000d60981e639e3378e1db339bc73819b97c752740b",
          "blockHash": "0x07964a9ed3e552c5567790cc09d650d8e76864a41fdd332c4dd6207f2cfce1fd",
          "blockNumber": "0x110c547d",
          "transactionHash": "0x7f1f18548f6c610f7f0d27001e56955fb1d42b5db3c91d9e7d11f2cc8a625044",
          "transactionIndex": "0x4",
          "logIndex": "0xb",
          "removed": false
        },
        {
          "address": "0x852518f32acd547fc8c4865aae3c9bc740d1d6d7",
          "topics": [
            "0x029ef4ddd14f777ffc2dc3e6b7193bc9fa2ff68a603ef378893d5fd60f589e21"
          ],
          "data": "0x0000000000000000000000000000000000000000000000000000000000000000",
          "blockHash": "0x07964a9ed3e552c5567790cc09d650d8e76864a41fdd332c4dd6207f2cfce1fd",
          "blockNumber": "0x110c547d",
          "transactionHash": "0x7f1f18548f6c610f7f0d27001e56955fb1d42b5db3c91d9e7d11f2cc8a625044",
          "transactionIndex": "0x4",
          "logIndex": "0xc",
          "removed": false
        },
        {
          "address": "0x852518f32acd547fc8c4865aae3c9bc740d1d6d7",
          "topics": [
            "0x864ac6374d57584a6126b3250d1715c7e265cae3116cca3b97aae45dff8b8ac7"
          ],
          "data": "0x00000000000000000000000000000000000000000000000000000000000000000000000000000000000000000000000000000000000000000000000000000000000000000000000000000000000000000000000000002a5a058fc295ed0000000000000000000000000000000000000000000000000069e10de76676d0800000",
          "blockHash": "0x07964a9ed3e552c5567790cc09d650d8e76864a41fdd332c4dd6207f2cfce1fd",
          "blockNumber": "0x110c547d",
          "transactionHash": "0x7f1f18548f6c610f7f0d27001e56955fb1d42b5db3c91d9e7d11f2cc8a625044",
          "transactionIndex": "0x4",
          "logIndex": "0xd",
          "removed": false
        }
      ],
      "logsBloom": "0x00000000000000000000000000000000000800000000000000000000000000000000000000000000000000000000000000000000000000000080001000000000000000000000000000000000000000000000000000000010000000004000000000000000000000000000000000000000000800000000000000000000000000002000000000000000000000000000000000000000000000000100000000000000000000000000000000000000000000000000000000000000000000000000010000000000000000000000000000000000000000000000000000000000000000000000000000000000100000000000000000000000010200000000000000000000",
      "type": "0x2",
      "transactionHash": "0x7f1f18548f6c610f7f0d27001e56955fb1d42b5db3c91d9e7d11f2cc8a625044",
      "transactionIndex": "0x4",
      "blockHash": "0x07964a9ed3e552c5567790cc09d650d8e76864a41fdd332c4dd6207f2cfce1fd",
      "blockNumber": "0x110c547d",
      "gasUsed": "0x458a1",
      "effectiveGasPrice": "0x989680",
      "from": "0xd60981e639e3378e1db339bc73819b97c752740b",
      "to": "0x852518f32acd547fc8c4865aae3c9bc740d1d6d7",
      "contractAddress": null,
      "gasUsedForL1": "0x260a9",
      "l1BlockNumber": "0x146faa4"
    },
    {
      "status": "0x1",
      "cumulativeGasUsed": "0x482d1",
      "logs": [
        {
          "address": "0x852518f32acd547fc8c4865aae3c9bc740d1d6d7",
          "topics": [
            "0x600574a7b9be83162c89cebf12e8deb5c80a4121ec49f68ccd53d9de62add9b8"
          ],
          "data": "0x0000000000000000000000000000000000000000000000000000000000000001000000000000000000000000d60981e639e3378e1db339bc73819b97c752740b",
          "blockHash": "0x2d59e285a8620ac3b2664e1caeffe724807b0c86caf5a0466ea0004aa9d10fa2",
          "blockNumber": "0x110c5481",
          "transactionHash": "0x3977c001f81d8ee76ecad16d01e860e61673102417419c0079b428da0608ad1f",
          "transactionIndex": "0x1",
          "logIndex": "0x0",
          "removed": false
        },
        {
          "address": "0x852518f32acd547fc8c4865aae3c9bc740d1d6d7",
          "topics": [
            "0x029ef4ddd14f777ffc2dc3e6b7193bc9fa2ff68a603ef378893d5fd60f589e21"
          ],
          "data": "0x0000000000000000000000000000000000000000000000000000000000000001",
          "blockHash": "0x2d59e285a8620ac3b2664e1caeffe724807b0c86caf5a0466ea0004aa9d10fa2",
          "blockNumber": "0x110c5481",
          "transactionHash": "0x3977c001f81d8ee76ecad16d01e860e61673102417419c0079b428da0608ad1f",
          "transactionIndex": "0x1",
          "logIndex": "0x1",
          "removed": false
        },
        {
          "address": "0x852518f32acd547fc8c4865aae3c9bc740d1d6d7",
          "topics": [
            "0x864ac6374d57584a6126b3250d1715c7e265cae3116cca3b97aae45dff8b8ac7"
          ],
          "data": "0x000000000000000000000000000000000000000000000000000000000000000100000000000000000000000000000000000000000000000000000000000000010000000000000000000000000000000000000000000069e10de76676d080000000000000000000000000000000000000000000000001a784379d99db42000000",
          "blockHash": "0x2d59e285a8620ac3b2664e1caeffe724807b0c86caf5a0466ea0004aa9d10fa2",
          "blockNumber": "0x110c5481",
          "transactionHash": "0x3977c001f81d8ee76ecad16d01e860e61673102417419c0079b428da0608ad1f",
          "transactionIndex": "0x1",
          "logIndex": "0x2",
          "removed": false
        }
      ],
      "logsBloom": "0x00000000000000000000000000000000000800000000000000000000000000000000000000000000000000000000000000000000000000000080001000000000000000000000000000000000000000000000000000000010000000004000000000000000000000000000000000000000000800000000000000000000000000002000000000000000000000000000000000000000000000000100000000000000000000000000000000000000000000000000000000000000000000000000010000000000000000000000000000000000000000000000000000000000000000000000000000000000100000000000000000000000010200000000000000000000",
      "type": "0x2",
      "transactionHash": "0x3977c001f81d8ee76ecad16d01e860e61673102417419c0079b428da0608ad1f",
      "transactionIndex": "0x1",
      "blockHash": "0x2d59e285a8620ac3b2664e1caeffe724807b0c86caf5a0466ea0004aa9d10fa2",
      "blockNumber": "0x110c5481",
      "gasUsed": "0x482d1",
      "effectiveGasPrice": "0x989680",
      "from": "0xd60981e639e3378e1db339bc73819b97c752740b",
      "to": "0x852518f32acd547fc8c4865aae3c9bc740d1d6d7",
      "contractAddress": null,
      "gasUsedForL1": "0x260a9",
      "l1BlockNumber": "0x146faa4"
    },
    {
      "status": "0x1",
      "cumulativeGasUsed": "0x1957d9",
      "logs": [
        {
          "address": "0x852518f32acd547fc8c4865aae3c9bc740d1d6d7",
          "topics": [
            "0x600574a7b9be83162c89cebf12e8deb5c80a4121ec49f68ccd53d9de62add9b8"
          ],
          "data": "0x0000000000000000000000000000000000000000000000000000000000000002000000000000000000000000d60981e639e3378e1db339bc73819b97c752740b",
          "blockHash": "0xd0140d93142ec4401095968a49ec8f9ca5a5f6f28181dbf08d9cd725a00ccb31",
          "blockNumber": "0x110c5488",
          "transactionHash": "0xb9fd7360366f79c4727b244eb82fc6ad387ad8b5bcd9a109c66a17d5c976aec6",
          "transactionIndex": "0x5",
          "logIndex": "0x18",
          "removed": false
        },
        {
          "address": "0x852518f32acd547fc8c4865aae3c9bc740d1d6d7",
          "topics": [
            "0x029ef4ddd14f777ffc2dc3e6b7193bc9fa2ff68a603ef378893d5fd60f589e21"
          ],
          "data": "0x0000000000000000000000000000000000000000000000000000000000000002",
          "blockHash": "0xd0140d93142ec4401095968a49ec8f9ca5a5f6f28181dbf08d9cd725a00ccb31",
          "blockNumber": "0x110c5488",
          "transactionHash": "0xb9fd7360366f79c4727b244eb82fc6ad387ad8b5bcd9a109c66a17d5c976aec6",
          "transactionIndex": "0x5",
          "logIndex": "0x19",
          "removed": false
        },
        {
          "address": "0x852518f32acd547fc8c4865aae3c9bc740d1d6d7",
          "topics": [
            "0x864ac6374d57584a6126b3250d1715c7e265cae3116cca3b97aae45dff8b8ac7"
          ],
          "data": "0x00000000000000000000000000000000000000000000000000000000000000020000000000000000000000000000000000000000000000000000000000000002000000000000000000000000000000000000000000295be96e64066972000000000000000000000000000000000000000000000000295be96e64066972000000",
          "blockHash": "0xd0140d93142ec4401095968a49ec8f9ca5a5f6f28181dbf08d9cd725a00ccb31",
          "blockNumber": "0x110c5488",
          "transactionHash": "0xb9fd7360366f79c4727b244eb82fc6ad387ad8b5bcd9a109c66a17d5c976aec6",
          "transactionIndex": "0x5",
          "logIndex": "0x1a",
          "removed": false
        }
      ],
      "logsBloom": "0x00000000000000000000000000000000000800000000000000000000000000000000000000000000000000000000000000000000000000000080001000000000000000000000000000000000000000000000000000000010000000004000000000000000000000000000000000000000000800000000000000000000000000002000000000000000000000000000000000000000000000000100000000000000000000000000000000000000000000000000000000000000000000000000010000000000000000000000000000000000000000000000000000000000000000000000000000000000100000000000000000000000010200000000000000000000",
      "type": "0x2",
      "transactionHash": "0xb9fd7360366f79c4727b244eb82fc6ad387ad8b5bcd9a109c66a17d5c976aec6",
      "transactionIndex": "0x5",
      "blockHash": "0xd0140d93142ec4401095968a49ec8f9ca5a5f6f28181dbf08d9cd725a00ccb31",
      "blockNumber": "0x110c5488",
      "gasUsed": "0x482d1",
      "effectiveGasPrice": "0x989680",
      "from": "0xd60981e639e3378e1db339bc73819b97c752740b",
      "to": "0x852518f32acd547fc8c4865aae3c9bc740d1d6d7",
      "contractAddress": null,
      "gasUsedForL1": "0x260a9",
      "l1BlockNumber": "0x146faa4"
    },
    {
      "status": "0x1",
      "cumulativeGasUsed": "0x3e7f8b",
      "logs": [
        {
          "address": "0x852518f32acd547fc8c4865aae3c9bc740d1d6d7",
          "topics": [
            "0x2f8788117e7eff1d82e926ec794901d17c78024a50270940304540a733656f0d",
            "0x9f2df0fed2c77648de5860a4cc508cd0818c85b8b8a1ab4ceeef8d981c8956a6",
            "0x000000000000000000000000c9e8dd03f8288abaf1ee4ab18646a7e42dd64ce7",
            "0x000000000000000000000000d60981e639e3378e1db339bc73819b97c752740b"
          ],
          "data": "0x",
          "blockHash": "0x8629b8b2c1bbeeedd12ea70c9164ccfd5d509ba76864e10b582b4def12fd861f",
          "blockNumber": "0x110c5490",
          "transactionHash": "0x0da47ff731db630e3d72500fc09110b120bff9f55f3ee7a140dee3ecc252dec2",
          "transactionIndex": "0xc",
          "logIndex": "0x22",
          "removed": false
        }
      ],
      "logsBloom": "0x00000004000000000000000000000000000000000000000000000000000000000000000000000000040000000000004000000000000000000400000000000000000000000000000000000000000000000000000000000010000000000000000000000000000000000000000400000000000000000000000000000000001000002000000000000000000000400000000000000000000000000000008008000000000000000000000000000000000000000000000000000000001000000000010000000000000000000000000000000000001000000000000100000000000000000000000000000000000000000000000000000000000000000000000000000000",
      "type": "0x2",
      "transactionHash": "0x0da47ff731db630e3d72500fc09110b120bff9f55f3ee7a140dee3ecc252dec2",
      "transactionIndex": "0xc",
      "blockHash": "0x8629b8b2c1bbeeedd12ea70c9164ccfd5d509ba76864e10b582b4def12fd861f",
      "blockNumber": "0x110c5490",
      "gasUsed": "0x3e614",
      "effectiveGasPrice": "0x989680",
      "from": "0xd60981e639e3378e1db339bc73819b97c752740b",
      "to": "0x852518f32acd547fc8c4865aae3c9bc740d1d6d7",
      "contractAddress": null,
      "gasUsedForL1": "0x20538",
      "l1BlockNumber": "0x146faa4"
    },
    {
      "status": "0x1",
      "cumulativeGasUsed": "0x2a891a",
      "logs": [
        {
          "address": "0x852518f32acd547fc8c4865aae3c9bc740d1d6d7",
          "topics": [
            "0x2f8788117e7eff1d82e926ec794901d17c78024a50270940304540a733656f0d",
            "0xd0aeb7b93be3b51a84ef63e0abb79b32e3ca9c5200c315110bf8808662f5151b",
            "0x0000000000000000000000000d55e17ca63fff2715859528eddc54d0a7e91248",
            "0x000000000000000000000000d60981e639e3378e1db339bc73819b97c752740b"
          ],
          "data": "0x",
          "blockHash": "0x088d5a4fbdabdad1385f990877adac09527757fbffe4b6cc325f3b8825429cb0",
          "blockNumber": "0x110c5498",
          "transactionHash": "0x8f9018a3df8ebbf1e3d55d696d8edc36ec34a57920e4991e405174e8b080553a",
          "transactionIndex": "0x5",
          "logIndex": "0xd",
          "removed": false
        }
      ],
      "logsBloom": "0x00000004000000000000000000000000000000000000000000000000000000000000000000000000000000000000000000000040000000000400000000000000000000000000000000000000040000000000000000000010000010000000000000000000000000008000000000000000000000000000000000000000000000002000000000000000000000400000000000000000000000000000000008000000000800000000000000000000000000000000000000000000001000000000010000000000000400000000000000000000000000000000000100000000000000000000000000000000000000000000000000000000000000000000000000000000",
      "type": "0x2",
      "transactionHash": "0x8f9018a3df8ebbf1e3d55d696d8edc36ec34a57920e4991e405174e8b080553a",
      "transactionIndex": "0x5",
      "blockHash": "0x088d5a4fbdabdad1385f990877adac09527757fbffe4b6cc325f3b8825429cb0",
      "blockNumber": "0x110c5498",
      "gasUsed": "0x3e608",
      "effectiveGasPrice": "0x989680",
      "from": "0xd60981e639e3378e1db339bc73819b97c752740b",
      "to": "0x852518f32acd547fc8c4865aae3c9bc740d1d6d7",
      "contractAddress": null,
      "gasUsedForL1": "0x20538",
      "l1BlockNumber": "0x146faa4"
    },
    {
      "status": "0x1",
      "cumulativeGasUsed": "0x3a33c",
      "logs": [
        {
          "address": "0x852518f32acd547fc8c4865aae3c9bc740d1d6d7",
          "topics": [
            "0x2f8788117e7eff1d82e926ec794901d17c78024a50270940304540a733656f0d",
            "0xd0aeb7b93be3b51a84ef63e0abb79b32e3ca9c5200c315110bf8808662f5151b",
            "0x00000000000000000000000080ba50157eea3d33e179e7c50c1f3d59484b1790",
            "0x000000000000000000000000d60981e639e3378e1db339bc73819b97c752740b"
          ],
          "data": "0x",
          "blockHash": "0xacb0dcc9bbc672c837cd92159503210d3c052088be8e300319d9301b7ea1bc50",
          "blockNumber": "0x110c549c",
          "transactionHash": "0x7fbe066e0057b5f3f237ef008126779b6c65073b6af0d17c964a3b3db5068370",
          "transactionIndex": "0x1",
          "logIndex": "0x0",
          "removed": false
        }
      ],
      "logsBloom": "0x00000004000000000000000000000000000000000000000000000000000000000000000000000000000000000000000000000040000000000400000000000000000040000000000000000000000000000000000100000010000010000000000000000000000000000000000000000000000000000000000000000000000000002000000000000000000000400000000000000000000000000000000008000000000000000000000000000000000000000000000000000000001000000000010000000000000400080000000000000000000000000000000100000000000000000000000000000000000000000000000000000000000000000000000000000000",
      "type": "0x2",
      "transactionHash": "0x7fbe066e0057b5f3f237ef008126779b6c65073b6af0d17c964a3b3db5068370",
      "transactionIndex": "0x1",
      "blockHash": "0xacb0dcc9bbc672c837cd92159503210d3c052088be8e300319d9301b7ea1bc50",
      "blockNumber": "0x110c549c",
      "gasUsed": "0x3a33c",
      "effectiveGasPrice": "0x989680",
      "from": "0xd60981e639e3378e1db339bc73819b97c752740b",
      "to": "0x852518f32acd547fc8c4865aae3c9bc740d1d6d7",
      "contractAddress": null,
      "gasUsedForL1": "0x20538",
      "l1BlockNumber": "0x146faa4"
    },
    {
      "status": "0x1",
      "cumulativeGasUsed": "0x54c2c",
      "logs": [
        {
          "address": "0x852518f32acd547fc8c4865aae3c9bc740d1d6d7",
          "topics": [
            "0x2f8788117e7eff1d82e926ec794901d17c78024a50270940304540a733656f0d",
            "0xd0aeb7b93be3b51a84ef63e0abb79b32e3ca9c5200c315110bf8808662f5151b",
            "0x000000000000000000000000083b59f244f8bacbc79282cdd623686324c962ac",
            "0x000000000000000000000000d60981e639e3378e1db339bc73819b97c752740b"
          ],
          "data": "0x",
          "blockHash": "0x3c667220161b9f9a860f26d68ca3516b2f6c9d4c7efd69864fafb2063ebfd0a4",
          "blockNumber": "0x110c54a9",
          "transactionHash": "0x626fc9f88d563f3c97cb2b7d4095db330e9a6eb8cbe04f8ff6f9ce1175699ca4",
          "transactionIndex": "0x2",
          "logIndex": "0x0",
          "removed": false
        }
      ],
      "logsBloom": "0x00000004000000000000000000000000000000000000010000000000000000000000000000000000000000000000000000000040000000000400000000000000000000000000000000000000000000000000000000000010000010000000000000000000000000000200000000000000000000000000000000000000000000002000000000000000000000400000000000000000000000000000000008000000000000000000000000000000000000000000000000000000001000000000010000000000000400000080000000000000000000000000000100000000000000000000000000000000000000000000000000000000000000000000000000000000",
      "type": "0x2",
      "transactionHash": "0x626fc9f88d563f3c97cb2b7d4095db330e9a6eb8cbe04f8ff6f9ce1175699ca4",
      "transactionIndex": "0x2",
      "blockHash": "0x3c667220161b9f9a860f26d68ca3516b2f6c9d4c7efd69864fafb2063ebfd0a4",
      "blockNumber": "0x110c54a9",
      "gasUsed": "0x3a33c",
      "effectiveGasPrice": "0x989680",
      "from": "0xd60981e639e3378e1db339bc73819b97c752740b",
      "to": "0x852518f32acd547fc8c4865aae3c9bc740d1d6d7",
      "contractAddress": null,
      "gasUsedForL1": "0x20538",
      "l1BlockNumber": "0x146faa4"
    },
    {
      "status": "0x1",
      "cumulativeGasUsed": "0x3a33c",
      "logs": [
        {
          "address": "0x852518f32acd547fc8c4865aae3c9bc740d1d6d7",
          "topics": [
            "0x2f8788117e7eff1d82e926ec794901d17c78024a50270940304540a733656f0d",
            "0xd0aeb7b93be3b51a84ef63e0abb79b32e3ca9c5200c315110bf8808662f5151b",
            "0x000000000000000000000000960b1d99a841399fb226715d9ef8ccafb9996bc8",
            "0x000000000000000000000000d60981e639e3378e1db339bc73819b97c752740b"
          ],
          "data": "0x",
          "blockHash": "0xd80dec039fbc7d2cff89fe28174237562c3edb82c9af6be59b6805cd327a2047",
          "blockNumber": "0x110c54ad",
          "transactionHash": "0x2a1f0810577387aff80908d635bb674afe1488a7dc1ab1a56cf5db8f81d1243f",
          "transactionIndex": "0x1",
          "logIndex": "0x0",
          "removed": false
        }
      ],
      "logsBloom": "0x00000004000000000000000000000000000000000000000000000000000000000000020000000000000000000000000000000040000000000400000000000000000000000020000000000000000000000000000000000010000010000000000000000000000000800000000000000000000000000000000000000000000000002000000000000000000000400000000000000000000000000000000008000000000000000000000000000000000000000000000000000000001000000000010000000000000400000000000000000000000000000000000100000000000000000000000000000000000000000000000000000000000000000000000000000000",
      "type": "0x2",
      "transactionHash": "0x2a1f0810577387aff80908d635bb674afe1488a7dc1ab1a56cf5db8f81d1243f",
      "transactionIndex": "0x1",
      "blockHash": "0xd80dec039fbc7d2cff89fe28174237562c3edb82c9af6be59b6805cd327a2047",
      "blockNumber": "0x110c54ad",
      "gasUsed": "0x3a33c",
      "effectiveGasPrice": "0x989680",
      "from": "0xd60981e639e3378e1db339bc73819b97c752740b",
      "to": "0x852518f32acd547fc8c4865aae3c9bc740d1d6d7",
      "contractAddress": null,
      "gasUsedForL1": "0x20538",
      "l1BlockNumber": "0x146faa4"
    },
    {
      "status": "0x1",
      "cumulativeGasUsed": "0x3a33c",
      "logs": [
        {
          "address": "0x852518f32acd547fc8c4865aae3c9bc740d1d6d7",
          "topics": [
            "0x2f8788117e7eff1d82e926ec794901d17c78024a50270940304540a733656f0d",
            "0xd0aeb7b93be3b51a84ef63e0abb79b32e3ca9c5200c315110bf8808662f5151b",
            "0x000000000000000000000000fbf329794a64bf940f7b3bdaff4f2157ba23b3cc",
            "0x000000000000000000000000d60981e639e3378e1db339bc73819b97c752740b"
          ],
          "data": "0x",
          "blockHash": "0xc9a7fe55d7d89db1a71afeac6b0802641e42c6b0f70c64de845b331148b47aa4",
          "blockNumber": "0x110c54b2",
          "transactionHash": "0xb4447ba6c512f593740b4569a1bedb531655f9d6e9226f023b48071f3157f412",
          "transactionIndex": "0x1",
          "logIndex": "0x0",
          "removed": false
        }
      ],
      "logsBloom": "0x00000004000000000000000000000000000000000000000000000000000000000000000000000000000000000000000000000440004000000400000000000000000000000000000000000000000000000000000000000010000010000000000000000000000000000000000000000000000000000000000000000000000000002000000000000000000000400000000000000000000000000000000008000000000000000000000000000000000000000000000000000000001000000000010002000000000400000000000000000000000000000000000100000000000000000000000000000000000000000000000000000000000000000000000000000000",
      "type": "0x2",
      "transactionHash": "0xb4447ba6c512f593740b4569a1bedb531655f9d6e9226f023b48071f3157f412",
      "transactionIndex": "0x1",
      "blockHash": "0xc9a7fe55d7d89db1a71afeac6b0802641e42c6b0f70c64de845b331148b47aa4",
      "blockNumber": "0x110c54b2",
      "gasUsed": "0x3a33c",
      "effectiveGasPrice": "0x989680",
      "from": "0xd60981e639e3378e1db339bc73819b97c752740b",
      "to": "0x852518f32acd547fc8c4865aae3c9bc740d1d6d7",
      "contractAddress": null,
      "gasUsedForL1": "0x20538",
      "l1BlockNumber": "0x146faa4"
    },
    {
      "status": "0x1",
      "cumulativeGasUsed": "0x1a275a",
      "logs": [
        {
          "address": "0x852518f32acd547fc8c4865aae3c9bc740d1d6d7",
          "topics": [
            "0x2f8788117e7eff1d82e926ec794901d17c78024a50270940304540a733656f0d",
            "0xd0aeb7b93be3b51a84ef63e0abb79b32e3ca9c5200c315110bf8808662f5151b",
            "0x000000000000000000000000937c8c2d78fd98e6c5488519b05a797ae1b9eb40",
            "0x000000000000000000000000d60981e639e3378e1db339bc73819b97c752740b"
          ],
          "data": "0x",
          "blockHash": "0x72308d657f65a90bc8f85e02b40f64f8cb26bb252e04b4964d5f11f5f91c51c8",
          "blockNumber": "0x110c54ba",
          "transactionHash": "0xd34f07e263ba9df2095d9ce225f901d41d2e2c5c19b9f8f39000584b14f21f5c",
          "transactionIndex": "0x6",
          "logIndex": "0xb",
          "removed": false
        }
      ],
      "logsBloom": "0x00000004000000000000000000000000000000000000000000000000000000000000000000000000000000000000000000000040000000000400000000000000000000000000000000000000800000000000000000000010000010000000000000000000000000000000000000000000000000000000000000000000000000002000000000000000000000400000000000000000000000000000000008000000000000000000000000000000000000000000000000000000001000000000010000000000000400000000000008000000000000000000000100000000000020000000000000000000000000000000000000000000000000000000000000000000",
      "type": "0x2",
      "transactionHash": "0xd34f07e263ba9df2095d9ce225f901d41d2e2c5c19b9f8f39000584b14f21f5c",
      "transactionIndex": "0x6",
      "blockHash": "0x72308d657f65a90bc8f85e02b40f64f8cb26bb252e04b4964d5f11f5f91c51c8",
      "blockNumber": "0x110c54ba",
      "gasUsed": "0x3a33c",
      "effectiveGasPrice": "0x989680",
      "from": "0xd60981e639e3378e1db339bc73819b97c752740b",
      "to": "0x852518f32acd547fc8c4865aae3c9bc740d1d6d7",
      "contractAddress": null,
      "gasUsedForL1": "0x20538",
      "l1BlockNumber": "0x146faa5"
    },
    {
      "status": "0x1",
      "cumulativeGasUsed": "0x78b25a",
      "logs": [
        {
          "address": "0x852518f32acd547fc8c4865aae3c9bc740d1d6d7",
          "topics": [
            "0x2f8788117e7eff1d82e926ec794901d17c78024a50270940304540a733656f0d",
            "0xd0aeb7b93be3b51a84ef63e0abb79b32e3ca9c5200c315110bf8808662f5151b",
            "0x000000000000000000000000330aaf998c9d2fe97d1ab86da724daf2f4d032e7",
            "0x000000000000000000000000d60981e639e3378e1db339bc73819b97c752740b"
          ],
          "data": "0x",
          "blockHash": "0x15c9cf683c42941243d82f771d8f39d5d016f9e561cd4b00abe9291c57a3efc3",
          "blockNumber": "0x110c54bd",
          "transactionHash": "0xb8da90f83d6521d8438606abbba4efe244e0ed48e5f551b57be0649233bc9b00",
          "transactionIndex": "0x1f",
          "logIndex": "0x48",
          "removed": false
        }
      ],
      "logsBloom": "0x00000004000000000000000000000000000000000000000000000000000000000400000000000000000000000000000000000040000000000400000000000000000000000000000000000000000000000000000000000010000010000000000000000000000000000000000000000000000000000000000000000000000000002000000000000000000000400000000000000000000000000000000008000000000000000000000000000000000000000000000000000000001000000000010000000040000400000000000000000000000000000000000100000800000000000000000000000000000000000000000000000000000000000000000000000000",
      "type": "0x2",
      "transactionHash": "0xb8da90f83d6521d8438606abbba4efe244e0ed48e5f551b57be0649233bc9b00",
      "transactionIndex": "0x1f",
      "blockHash": "0x15c9cf683c42941243d82f771d8f39d5d016f9e561cd4b00abe9291c57a3efc3",
      "blockNumber": "0x110c54bd",
      "gasUsed": "0x3a33c",
      "effectiveGasPrice": "0x989680",
      "from": "0xd60981e639e3378e1db339bc73819b97c752740b",
      "to": "0x852518f32acd547fc8c4865aae3c9bc740d1d6d7",
      "contractAddress": null,
      "gasUsedForL1": "0x20538",
      "l1BlockNumber": "0x146faa5"
    },
    {
      "status": "0x1",
      "cumulativeGasUsed": "0x24dfef",
      "logs": [
        {
          "address": "0x852518f32acd547fc8c4865aae3c9bc740d1d6d7",
          "topics": [
            "0x2f8788117e7eff1d82e926ec794901d17c78024a50270940304540a733656f0d",
            "0x7cd6f1a239a00c62e8815cb6a9b8149b13733d4f681b2e2ebeceddf933a69bcf",
            "0x000000000000000000000000e77747b356cd9dbe6e465974919d6b91ff5accd2",
            "0x000000000000000000000000d60981e639e3378e1db339bc73819b97c752740b"
          ],
          "data": "0x",
          "blockHash": "0xadade5ee291e0ebaf27b7019cb5bccac145b73fdeef6a79b24207233a6e29223",
          "blockNumber": "0x110c54c1",
          "transactionHash": "0x21f2aeb3d980e9a6e0141a98e3df65ec87527d9333c6e95f204da2946b5b657c",
          "transactionIndex": "0x5",
          "logIndex": "0x13",
          "removed": false
        }
      ],
      "logsBloom": "0x00000004000000000000000000000100000000000000000000000000000000000000000000001000000000000000000000000000000000000400000000000000000000000000000000000000000000000000000000000010000001080000000000000000000000000000000000000000000000000000000000000000000000002000000000000100000000400000000000000000000000000000000008000000000000000000000000000000000000000000000000000000001000000000010000000000000200000000000000000000000000000000000100000000000000000000000000000000000000000000000000000000000000000000000000000000",
      "type": "0x2",
      "transactionHash": "0x21f2aeb3d980e9a6e0141a98e3df65ec87527d9333c6e95f204da2946b5b657c",
      "transactionIndex": "0x5",
      "blockHash": "0xadade5ee291e0ebaf27b7019cb5bccac145b73fdeef6a79b24207233a6e29223",
      "blockNumber": "0x110c54c1",
      "gasUsed": "0x3e614",
      "effectiveGasPrice": "0x989680",
      "from": "0xd60981e639e3378e1db339bc73819b97c752740b",
      "to": "0x852518f32acd547fc8c4865aae3c9bc740d1d6d7",
      "contractAddress": null,
      "gasUsedForL1": "0x20538",
      "l1BlockNumber": "0x146faa5"
    },
    {
      "status": "0x1",
      "cumulativeGasUsed": "0x58396",
      "logs": [
        {
          "address": "0x852518f32acd547fc8c4865aae3c9bc740d1d6d7",
          "topics": [
            "0x2f8788117e7eff1d82e926ec794901d17c78024a50270940304540a733656f0d",
            "0x65d7a28e3265b37a6474929f336521b332c1681b933f6cb9f3376673440d862a",
            "0x00000000000000000000000069ee6870571d71af0ee26d8b0d4ddd6261fa8232",
            "0x000000000000000000000000d60981e639e3378e1db339bc73819b97c752740b"
          ],
          "data": "0x",
          "blockHash": "0xda1e6ce9f40ab84ab4027a4e15da7375249436ca85ad362233e03e3e49150ca3",
          "blockNumber": "0x110c54c9",
          "transactionHash": "0x3f3caa42a19073e9ea1d59adbfe98da411ee122bf6909f18869b2b73597f5374",
          "transactionIndex": "0x2",
          "logIndex": "0x0",
          "removed": false
        }
      ],
      "logsBloom": "0x00000004000000000000000000000000000000000000000000000000000000000000000000000000000000000000000000000000000000000400000000000000000000000000000000000000000000000000000000000010000000000000000000000000000000000000000000000000000000000000000000000000000000042000000000000000000000400000008000000000000000000000000008000000000000000000000000000000000000000000000000000000001000000000010000000000000000000000000000000000800000000000000100002000000000000000000000000000000000000000000000000400008000000000000000000000",
      "type": "0x2",
      "transactionHash": "0x3f3caa42a19073e9ea1d59adbfe98da411ee122bf6909f18869b2b73597f5374",
      "transactionIndex": "0x2",
      "blockHash": "0xda1e6ce9f40ab84ab4027a4e15da7375249436ca85ad362233e03e3e49150ca3",
      "blockNumber": "0x110c54c9",
      "gasUsed": "0x3e614",
      "effectiveGasPrice": "0x989680",
      "from": "0xd60981e639e3378e1db339bc73819b97c752740b",
      "to": "0x852518f32acd547fc8c4865aae3c9bc740d1d6d7",
      "contractAddress": null,
      "gasUsedForL1": "0x20538",
      "l1BlockNumber": "0x146faa5"
    },
    {
      "status": "0x1",
      "cumulativeGasUsed": "0x3a1c8",
      "logs": [
        {
          "address": "0x852518f32acd547fc8c4865aae3c9bc740d1d6d7",
          "topics": [
            "0x2f8788117e7eff1d82e926ec794901d17c78024a50270940304540a733656f0d",
            "0x0000000000000000000000000000000000000000000000000000000000000000",
            "0x0000000000000000000000005bafe071663f6e175f0b7424251ab46437ba6abd",
            "0x000000000000000000000000d60981e639e3378e1db339bc73819b97c752740b"
          ],
          "data": "0x",
          "blockHash": "0x2d9e3fa6beeb7c8ad6af9db7cc325d125883bc032e510ea6903a8f44118ad6ce",
          "blockNumber": "0x110c54d1",
          "transactionHash": "0xffd027994a5e0917b6256de397a5e3f8e483d7feb05cf0527f57b3c83d2fa04e",
          "transactionIndex": "0x1",
          "logIndex": "0x0",
          "removed": false
        }
      ],
      "logsBloom": "0x00000004000000000000000000000000000000000000000000000000000000000000000000000000000000000000000040000000000000000600000000000000000000000000000000000000000000000000000000000010000000000000000000000000020000000000000000000800000000000000000000000000000000002000000000000000000000400000000000000000000000000000000008000000000000000000000000000000000020000000000000000000001000000000010000000000000000000000000000000000000000000000000100000000000020000000000000000000000000000000000000000000000000000000000000000000",
      "type": "0x2",
      "transactionHash": "0xffd027994a5e0917b6256de397a5e3f8e483d7feb05cf0527f57b3c83d2fa04e",
      "transactionIndex": "0x1",
      "blockHash": "0x2d9e3fa6beeb7c8ad6af9db7cc325d125883bc032e510ea6903a8f44118ad6ce",
      "blockNumber": "0x110c54d1",
      "gasUsed": "0x3a1c8",
      "effectiveGasPrice": "0x989680",
      "from": "0xd60981e639e3378e1db339bc73819b97c752740b",
      "to": "0x852518f32acd547fc8c4865aae3c9bc740d1d6d7",
      "contractAddress": null,
      "gasUsedForL1": "0x20538",
      "l1BlockNumber": "0x146faa5"
    }
  ],
  "libraries": [],
  "pending": [],
  "returns": {},
  "timestamp": 1734518696,
  "chain": 42161,
  "commit": "aa8f7bc"
}